:020000040800F2
:1000000000000320010C0008551A0008571A0008C8
:10001000591A00085B1A00085D1A00080000000069
:1000200000000000000000000000000081850008C2
:100030005F1A00080000000011860008758600089D
:10004000510C0008510C0008510C0008510C00081C
:10005000510C0008510C0008510C0008510C00080C
:10006000510C0008510C0008510C0008510C0008FC
:10007000510C0008510C0008510C0008510C0008EC
:10008000510C0008510C0008510C0008510C0008DC
:10009000510C0008510C0008510C0008510C0008CC
:1000A000510C0008510C0008510C0008510C0008BC
:1000B000510C0008510C0008510C0008510C0008AC
:1000C000510C0008510C0008510C0008510C00089C
:1000D000510C0008510C0008510C0008510C00088C
:1000E000510C0008510C0008510C0008510C00087C
:1000F000510C0008510C0008510C0008510C00086C
:10010000510C0008510C0008510C0008510C00085B
:10011000510C0008510C0008611A0008510C00082D
:10012000510C0008510C0008510C0008510C00083B
:10013000510C0008510C0008510C0008510C00082B
:10014000510C0008510C0008510C0008510C00081B
:10015000510C0008510C0008510C0008510C00080B
:10016000510C0008510C0008510C0008510C0008FB
:10017000510C0008510C0008510C00080000000050
:10018000510C0008510C0008510C0008510C0008DB
:10019000510C0008510C0008510C0008510C0008CB
:0C01A0006D1A0008510C0008791A0008C4
:1001B00010B5054C237833B9044B13B10448AFF3A1
:1001C00000800123237010BD6801002000000000A2
:1001D00040F8010808B5034B1BB103490348AFF3CE
:1001E000008008BD000000006C01002040F80108FC
:1001F00001F0FF01102A2BDB10F0070F08D010F8D8
:10020000013B013A8B422DD010F0070F42B3F6D1DB
:10021000F0B441EA012141EA014122F007047FF0F4
:1002200000070023F0E80256083C85EA010586EA4B
:10023000010685FA47F5A3FA87F586FA47F6A5FA87
:1002400087F68EB9EED1F0BC01F0FF0102F0070293
:1002500032B110F8013B013A83EA010313B1F8D13E
:100260000020704701387047002D06BF354603381F
:10027000073815F0010F07D1013015F4807F02BF58
:10028000013015F4C03F0130F0BC0138704700BFA9
:1002900070B54FF0FF0C4CF4E06C1CEA11541DBF1C
:1002A0001CEA135594EA0C0F95EA0C0F00F0DEF8E7
:1002B0002C4481EA030621EA4C5123EA4C5350EACC
:1002C000013518BF52EA033541F4801143F480131D
:1002D00038D0A0FB02CE4FF00005E1FB02E506F0AE
:1002E0000042E0FB03E54FF00006E1FB03569CF003
:1002F000000F18BF4EF0010EA4F1FF04B6F5007F09
:1003000064F5407404D25FEA4E0E6D4146EB06067A
:1003100042EAC62141EA55514FEAC52040EA5E5003
:100320004FEACE2EB4F1FD0C88BFBCF5E06F1ED8AD
:10033000BEF1004F08BF5FEA500E50F1000041EBE4
:10034000045170BD06F0004646EA010140EA020091
:1003500081EA0301B4EB5C04C2BFD4EB0C0541EAB3
:10036000045170BD41F480114FF0000E013C00F3C8
:10037000AB8014F1360FDEBF002001F0004170BDEC
:10038000C4F10004203C35DA0C341BDC04F1140405
:10039000C4F1200500FA05F320FA04F001FA05F291
:1003A00040EA020001F0004221F0004110EBD3705E
:1003B00021FA04F642EB06015EEA430E08BF20EA8A
:1003C000D37070BDC4F10C04C4F1200500FA04F32D
:1003D00020FA05F001FA04F240EA020001F00041BF
:1003E00010EBD37041F100015EEA430E08BF20EA32
:1003F000D37070BDC4F1200500FA05F24EEA020E7A
:1004000020FA04F301FA05F243EA020321FA04F0A8
:1004100001F0004121FA04F220EA020000EBD3705F
:100420005EEA430E08BF20EAD37070BD94F0000F5F
:100430000FD101F00046400041EB010111F4801F93
:1004400008BF013CF7D041EA060195F0000F18BF44
:10045000704703F00046520043EB030313F4801F80
:1004600008BF013DF7D043EA0603704794EA0C0F3A
:100470000CEA135518BF95EA0C0F0CD050EA410650
:1004800018BF52EA4306D1D181EA030101F00041CD
:100490004FF0000070BD50EA410606BF10461946F5
:1004A00052EA430619D094EA0C0F02D150EA013601
:1004B00013D195EA0C0F05D152EA03361CBF104642
:1004C00019460AD181EA030101F0004141F0FE41E1
:1004D00041F470014FF0000070BD41F0FE4141F465
:1004E000780170BD81F0004102E000BF83F000435D
:1004F00030B54FEA41044FEA430594EA050F08BFBF
:1005000090EA020F1FBF54EA000C55EA020C7FEA82
:10051000645C7FEA655C00F0E2804FEA5454D4EBFF
:100520005555B8BF6D420CDD2C4480EA020281EAC9
:10053000030382EA000083EA010180EA020281EA01
:100540000303362D88BF30BD11F0004F4FEA013153
:100550004FF4801C4CEA113102D0404261EB410162
:1005600013F0004F4FEA03334CEA133302D05242E8
:1005700063EB430394EA050F00F0A780A4F10104A4
:10058000D5F1200E0DDB02FA0EFC22FA05F28018DE
:1005900041F1000103FA0EF2801843FA05F35941C4
:1005A0000EE0A5F120050EF1200E012A03FA0EFC43
:1005B00028BF4CF0020C43FA05F3C01851EBE3716D
:1005C00001F0004507D54FF0000EDCF1000C7EEB8A
:1005D00000006EEB0101B1F5801F1BD3B1F5001FC8
:1005E0000CD349085FEA30004FEA3C0C04F10104E7
:1005F0004FEA445212F5800F80F09A80BCF1004F10
:1006000008BF5FEA500C50F1000041EB045141EA91
:10061000050130BD5FEA4C0C404141EB0101013C5A
:1006200028BFB1F5801FE9D291F0000F04BF014649
:100630000020B1FA81F308BF2033A3F10B03B3F11B
:1006400020020CDA0C3208DD02F1140CC2F10C02AB
:1006500001FA0CF021FA02F10CE002F11402D8BF09
:10066000C2F1200C01FA02F120FA0CFCDCBF41EAD5
:100670000C019040E41AA2BF01EB0451294330BDA4
:100680006FEA04041F3C1CDA0C340EDC04F1140481
:10069000C4F1200220FA04F001FA02F340EA030058
:1006A00021FA04F345EA030130BDC4F10C04C4F19E
:1006B000200220FA02F001FA04F340EA030029467E
:1006C00030BD21FA04F0294630BD94F0000F83F4C8
:1006D000801306BF81F480110134013D4EE77FEAAB
:1006E000645C18BF7FEA655C29D094EA050F08BFF7
:1006F00090EA020F05D054EA000C04BF19461046D8
:1007000030BD91EA030F1EBF0021002030BD5FEA1B
:10071000545C05D14000494128BF41F0004130BD43
:1007200014F580043CBF01F5801130BD01F0004597
:1007300045F0FE4141F470014FF0000030BD7FEA0A
:10074000645C1ABF194610467FEA655C1CBF0B4605
:10075000024650EA013406BF52EA033591EA030F1C
:1007600041F4002130BD00BF90F0000F04BF002114
:10077000704730B54FF4806404F132044FF0000547
:100780004FF0000150E700BF90F0000F04BF0021C0
:10079000704730B54FF4806404F1320410F0004526
:1007A00048BF40424FF000013EE700BF42004FEA21
:1007B000E2014FEA31014FEA02701FBF12F07F439E
:1007C00093F07F4F81F06051704732F07F4208BF55
:1007D000704793F07F4F04BF41F40021704730B55C
:1007E0004FF4607401F0004521F000411CE700BFA8
:1007F00050EA010208BF704730B54FF000050AE02B
:1008000050EA010208BF704730B511F0004502D52B
:10081000404261EB41014FF4806404F132045FEA2D
:10082000915C3FF4D8AE4FF003025FEADC0C18BFD6
:1008300003325FEADC0C18BF033202EBDC02C2F1C8
:10084000200300FA03FC20FA02F001FA03FE40EA5A
:100850000E0021FA02F11444BDE600BF4FEA410246
:10086000B2F1E04324BFB3F5001CDCF1FE5C0DD90E
:1008700001F0004C4FEAC0024CEA5070B2F1004F58
:1008800040EB830008BF20F00100704711F0804F5B
:1008900021D113F13872BCBF01F00040704741F420
:1008A00080114FEA5252C2F11802C2F1200C10FA24
:1008B0000CF320FA02F018BF40F001004FEAC12308
:1008C0004FEAD32303FA0CFC40EA0C0023FA02F3AC
:1008D0004FEA4303CCE77FEA625307D150EA013382
:1008E0001EBF4FF0FE4040F44000704701F0004052
:1008F00040F0FE4040F40000704700BF53B94AB9D1
:10090000002908BF00281CBF4FF0FF314FF0FF3017
:1009100000F074B9ADF1080C6DE904CE00F006F8F2
:10092000DDF804E0DDE9022304B070472DE9F0476B
:10093000089D04468E46002B4DD18A42944669D9C3
:10094000B2FA82F252B101FA02F3C2F1200120FAA6
:1009500001F10CFA02FC41EA030E94404FEA1C48F4
:10096000210CBEFBF8F61FFA8CF708FB16E341EAF0
:10097000034306FB07F199420AD91CEB030306F176
:10098000FF3080F01F81994240F21C81023E634497
:100990005B1AA4B2B3FBF8F008FB103344EA03443B
:1009A00000FB07F7A7420AD91CEB040400F1FF3350
:1009B00080F00A81A74240F207816444023840EA8D
:1009C0000640E41B00261DB1D4400023C5E90043C6
:1009D0003146BDE8F0878B4209D9002D00F0EF8049
:1009E0000026C5E9000130463146BDE8F087B3FA7C
:1009F00083F6002E4AD18B4202D3824200F2F98064
:100A0000841A61EB030301209E46002DE0D0C5E966
:100A1000004EDDE702B9FFDEB2FA82F2002A40F0B2
:100A20009280A1EB0C014FEA1C471FFA8CFE0126B5
:100A3000200CB1FBF7F307FB131140EA01410EFB59
:100A400003F0884208D91CEB010103F1FF3802D200
:100A5000884200F2CB804346091AA4B2B1FBF7F0FA
:100A600007FB101144EA01440EFB00FEA64508D91D
:100A70001CEB040400F1FF3102D2A64500F2BB805A
:100A80000846A4EB0E0440EA03409CE7C6F12007A9
:100A9000B34022FA07FC4CEA030C20FA07F401FAEF
:100AA00006F31C43F9404FEA1C4900FA06F3B1FB78
:100AB000F9F8200C1FFA8CFE09FB181140EA0141DD
:100AC00008FB0EF0884202FA06F20BD91CEB01017A
:100AD00008F1FF3A80F08880884240F28580A8F1D2
:100AE00002086144091AA4B2B1FBF9F009FB101124
:100AF00044EA014100FB0EFE8E4508D91CEB0101C2
:100B000000F1FF346CD28E456AD90238614440EA64
:100B10000840A0FB0294A1EB0E01A142C846A646E4
:100B200056D353D05DB1B3EB080261EB0E0101FA6D
:100B300007F722FA06F3F1401F43C5E900710026CA
:100B40003146BDE8F087C2F12003D8400CFA02FC20
:100B500021FA03F3914001434FEA1C471FFA8CFE30
:100B6000B3FBF7F007FB10360B0C43EA064300FB20
:100B70000EF69E4204FA02F408D91CEB030300F1BE
:100B8000FF382FD29E422DD9023863449B1B89B275
:100B9000B3FBF7F607FB163341EA034106FB0EF3FE
:100BA0008B4208D91CEB010106F1FF3816D28B42AB
:100BB00014D9023E6144C91A46EA004638E72E4677
:100BC000284605E70646E3E61846F8E64B45A9D26F
:100BD000B9EB020864EB0C0E0138A3E74646EAE7DE
:100BE000204694E74046D1E7D0467BE7023B61448C
:100BF00032E7304609E76444023842E7704700BFF5
:100C0000DFF834D0002103E00C4B5B584350043133
:100C10000B480C4B42189A42F6D30B4A02E00023D1
:100C200042F8043B094B9A42F9D304F0B3FC1DF09F
:100C3000CDFB00F0CFF9704700000320F0BD0308A2
:100C40000000002068010020680100208C42012083
:100C5000FEE7000007B5064BADF806001B68054827
:100C600001220DF1060106F040FB03B05DF804FB24
:100C70000800002090040020024903483223642227
:100C800006F06FBF0C000020980200202DE9F84FFD
:100C90009C4C9D4864231A46214606F0B7FF2278F3
:100CA000422A40F08E806378542B45D1A378432BA1
:100CB00042D121796079954DA1F13003217A42F238
:100CC000107C30390CFB031130384FF47A7303FB7E
:100CD0000011A0796427303807FB0011E0790A265B
:100CE000303806FB0011A07AA962A0F13001A07B88
:100CF00030380CFB0100E17A303903FB0100217B25
:100D0000303907FB0100617B303906FB0100217C93
:100D1000E862A1F13000217D30390CFB0011607CCC
:100D2000303803FB0013A17C303907FB0133E17C31
:100D3000303906FB01332B63DFF8D881DFF8D8C1E7
:100D4000DFF8C8B1002364210A204FF47A774FF00E
:100D50000B0942F2107A03F13005EDB2AA422BD111
:100D60006578422D40F0B280A578542D24D1E578E5
:100D7000432D21D109FB03FE0CEB0E0526684CF830
:100D80000E6066686E6026892E81A67AAE726579DD
:100D9000A5F13006657A303D0AFB0655A679303E4E
:100DA00007FB0655E679303E01FB0655267A303EB4
:100DB00000FB06554BF8235001330A2BCBD1BDE87D
:100DC000F88F452A2ED04C2AB6D16378542BB3D154
:100DD000A378432BB0D121794D48A1F13003A179FB
:100DE0006425303905FB031163790A26303B06FB85
:100DF00003118162217AA1F13003A17A303905FB18
:100E00000311637A303B06FB0311237BC162A3F11C
:100E10003001A37B303B05FB0133617B303906FB9E
:100E2000013339E06378542B86D1A378482B83D1E2
:100E300021793848A1F13003E1794FF47A773039DC
:100E400007FB031163796426303B06FB0311A3798A
:100E50000A25303B05FB03118162617AA1F1300361
:100E6000217B303907FB0311A37A303B06FB0311CA
:100E7000E37A303B05FB0311A37BC162A3F1300190
:100E8000637C303B07FB0133E17B303906FB0133E8
:100E9000217C303905FB013303634DE7A578542DE0
:100EA0008AD1E578482D87D16579A5F13006257A74
:100EB000303D07FB0655A679303E01FB0655E67925
:100EC000303E00FB065548F8235075E7452DE5D028
:100ED0004C2D7FF471AFA578542D7FF46DAFE5787C
:100EE000432D7FF469AF6579A5F13006E579303D92
:100EF00001FB0655A679303E00FB0655044E46F828
:100F0000235059E7DC02002098020020F401002061
:100F10005C0200202802002084010020F0B5A1B06E
:100F2000102200210AA81DF093FA1422002103A820
:100F30001DF08EFA0021302214A81DF089FA002439
:100F4000224B01941A6C42F080521A641B6C03F01D
:100F500080530193019B1E4B02941A6842F4404255
:100F60001A601B6803F4404302930122029B4FF472
:100F70008033CDE9082302254FF48003CDE90E53D9
:100F800008274FF4A873042608A8CDE9107312951A
:100F9000139605F0B7FC0F23CDE903354FF4A051AC
:100FA0004FF48053CDE9061303A80521059405F0FD
:100FB00081FEC023189314A84FF4003314971A9697
:100FC0001D9305F051FF21B0F0BD00BF0038024075
:100FD000007000402DE980489DB00024C44DC54EEE
:100FE00004F0E6FAFFF79AFF142200210FA81DF083
:100FF0002FFA02942B6BC04843F020032B632B6B1A
:1010000003F020030293029B03942B6B43F08003B5
:101010002B632B6B03F080030393039B04942B6BD4
:1010200043F004032B632B6B03F004030493049B32
:1010300005942B6B43F001032B632B6B03F001032F
:101040000593059B06942B6B43F002032B632B6BDC
:1010500003F002030693069B07942B6B43F04003B7
:101060002B632B6B03F040030793079B08942B6BB8
:1010700043F010032B632B6B03F010030893089BC2
:1010800009942B6B43F008032B632B6B03F00803CD
:10109000099322460421099B04F038FE2246974812
:1010A0004FF440514FF0010804F030FE02274FF09A
:1010B0000409914811940FA94FF4005ACDE90F98F3
:1010C000129704F03BFD8E480FA9CDE90FA8CDE99A
:1010D000114704F033FD0FA94FF440538748CDE981
:1010E0000F38CDE9114704F029FD8648864B03608F
:1010F00004F004FB854A864B3462C6E9002330467F
:101100004FF48043C6E90434C6E90244C6E9064404
:1011100004F0DEFF1021304605F01AFA2146304671
:1011200005F035FA7B487C4984624FF48273C0E94C
:1011300000134FF400761823C0E906630A23774EA4
:10114000C362C0E90244C0E90444C0E9084406F0AF
:101150008FF8734BC6F828A04FF0100CC6E9003882
:101160004023C6E904C34FF4C073C6E906344FF404
:1011700000634FF0070AC6E908340FA9032330467D
:10118000CDE913374FF0080BC6E90249CDE910A9A4
:10119000CDF848A00F97159705F090FF4FF6FF7216
:1011A0000BA93046CDE90CB80A94CDF82C800E94EA
:1011B00005F0A4FF404604F027FA4FF6FF720BA992
:1011C0003046CDE90B7BCDE90D8405F097FF032375
:1011D0004FF6FF720BA93046CDE90B3BCDE90D94DC
:1011E00005F08CFF4FF40C720A920A9A0E920BA92A
:1011F0004FF6FF723046CDE90B9BCDF8348005F0F9
:101200007DFF40F26A51304605F08FFF21463422BF
:101210000FA81DF01DF9434E434AB486C6E90024C9
:101220000922C6E9052803231D2240F20D1EC6E946
:10123000072340F24313C6E909E340F2171940F2CD
:1012400047133046C6E90B93C6E90244346186F879
:10125000364005F041FAFF21F022CDE914144FF495
:10126000806905214FF4A073CDE91024CDE91691D2
:10127000CDE918420FA922463046CDE912372B4E50
:101280001A930F94ADF86C408DF86E4005F0EFFAAC
:10129000274B33601B6898473368264EDB689847B6
:1012A000254BC6E90A47C6E90C443046C6E9003476
:1012B000C6E9027404F074FA4146304604F0FAFBC1
:1012C00000F032FC00942B6B1C4843EA08032B63AC
:1012D0002B6B03EA08030093009B01942B6B43EAFA
:1012E00008032B632B6B03EA0803019328E000BF7C
:1012F000003802406003002000080240000C024059
:10130000001802401803002000300240005C00403A
:10131000A086010090040020005001405C040020E1
:10132000400100A0B40300200068014094020020A6
:10133000180000202003002000B0024000000240FE
:10134000019B0B946B6C43F010036B646B6CCDF8DA
:101350004CA003F010030B930B9B0FA94FF40073E9
:10136000CDE90F37CDE9114704F0E8FB0FA9134889
:10137000CDF84CA0CDF83C90DFF854A004F0DEFB93
:101380000F484FF41653C0E900A30C234361C0E992
:10139000024404618461C46106F0B5FB06F032FDCD
:1013A000084A0948214606F067FD084B186006F018
:1013B00043FDC82004F028F9FBE700BF000002400D
:1013C00098020020A4F801082D1B000890020020BC
:1013D00000100140704770477FB5094B8DF817200A
:1013E0001B6802930DF117020123009201930A4634
:1013F0000146044804F014FF07B05DF804FB00BF89
:1014000004000020600300207FB500238DF8173012
:10141000084B1B6802930A4601230DF11701009146
:1014200001930146044804F08BFF9DF8170007B0B4
:101430005DF804FB04000020600300201FB5084C89
:1014400024680092CDE901340A460123014605488B
:1014500004F076FF003818BF012004B010BD00BFB3
:10146000040000206003002004F0CEB808B5064850
:101470000022042104F04AFCBDE808400248012291
:10148000042104F043BC00BF0008024038B50B4DF6
:10149000044601220A484FF4005104F037FC0022B0
:1014A0000421284604F032FC2046FFF7D3FB2846EF
:1014B0000122BDE83840042104F028BC00080240A5
:1014C000000C024038B50B4D044600220A484FF488
:1014D000005104F01BFC00220421284604F016FCF5
:1014E0002046FFF7B7FB28460122BDE8384004211B
:1014F00004F00CBC00080240000C0240F7B5144E8A
:10150000144F05460C4630460022042104F0FEFB31
:1015100000224FF40051384604F0F8FB2846FFF74C
:1015200099FB0D4B0D481B68224601A906F07BF87C
:10153000384601224FF40051019C04F0E7FB30468D
:101540000122042104F0E2FB204603B0F0BD00BFFD
:1015500000080240000C0240080000209004002017
:1015600004F052B80268034B9A4201D104F03AB831
:10157000704700BF0010004082B00E4B0022009266
:10158000596C41F480415964596C01F480410091D7
:1015900000990192196C41F0805119641B6C03F0A1
:1015A00080530193019B0F216FF0010002B004F002
:1015B00051B800BF003802400268094B9A4282B01D
:1015C0000BD100230193074B1A6B42F480521A632C
:1015D0001B6B03F480530193019B02B0704700BF63
:1015E000003002400038024007B50F4B02689A42B3
:1015F00016D10022A3F5F0430192196B41F40001CA
:1016000019631B6B03F40003019305215A20019B0E
:1016100004F020F85A2003B05DF804EB04F04CB855
:1016200003B05DF804FB00BF00B002400268064B47
:101630009A4207D1054A136B23F4000313635A201F
:1016400004F048B8704700BF00B0024000380240C4
:101650002DE9F043044689B01422002103A81CF0B0
:10166000F7FE2268244B9A4243D1244C244800259B
:101670000095236B43F004032363236B03F00403FF
:101680000093009B0195236B43F001032363236BBD
:1016900003F001030193019B4FF012094FF4007313
:1016A0004FF001080327042603A9CDE90339CDE94A
:1016B0000587079604F042FA4FF4807311480796A5
:1016C00003A9CDE90339CDE9058704F037FA02957E
:1016D000236C43F400032364236C03F4000302939C
:1016E000029B236A43F400032362236A23F400036A
:1016F000236209B0BDE8F083005C0040003802407E
:101700000008024000000240F0B504468DB01422EB
:10171000002107A81CF09CFE2268574B9A4240F01B
:10172000A88003F55043002500955A6C534842F0B9
:1017300080625A645A6C02F080620092009A0195AD
:101740001A6B42F020021A631A6B02F02002019217
:10175000019A02951A6B42F001021A631A6B02F0A9
:1017600001020292029A03951A6B42F002021A6376
:101770001A6B02F002020392039A04951A6B42F06C
:1017800040021A631A6B02F040020492049A059513
:101790001A6B42F004021A631A6B02F004020592FB
:1017A000059A06951A6B42F008021A631B6B03F048
:1017B0000803069302240E26069B0A944FF48063C6
:1017C00007A9CDE907340B9604F0B8F941F65803A0
:1017D0002B480B9607A9CDE907340927CDE9095411
:1017E00004F0ACF9032327480B9707A9CDE9073488
:1017F000CDE9095404F0A2F94FF4706321480B9627
:1018000007A9CDE90734CDE9095404F097F94FF45D
:101810000C631D480B9607A9CDE90734CDE909549F
:1018200004F08CF9C02319480B9607A9CDE90734B9
:10183000CDE9095404F082F9082315480B9607A94D
:10184000CDE90734CDE9095404F078F94FF4A053F9
:101850000D480B9707A9CDE90734CDE9095404F0E9
:101860006DF958202A46052103F0F4FE582003F0B4
:1018700023FF0DB0F0BD00BF00680140001402401E
:10188000000002400004024000180240000802402C
:10189000000C024010B5044688B01422002103A8B1
:1018A0001CF0D6FD2268144B9A4223D103F56843FD
:1018B000002101915A6C114842F480125A645A6C0A
:1018C00002F480120192019A02911A6B42F02002F6
:1018D0001A631B6B03F020030293029B4FF46072A8
:1018E00002230321CDE903230523CDE9061303A930
:1018F00004F024F908B010BD00500140001402406B
:101900002DE9F04186B0002303932B4B1C68002C7B
:101910004FD14FF00108C3F80080284B00949A6B18
:10192000274842EA08029A639B6B03EA0803009384
:10193000022703260C25009B01A94FF63F03CDE9A2
:101940000137CDE9046504F0F9F81E48059501A9B1
:10195000CDE90187CDE9034604F0F0F848F23313EE
:101960001948059501A9CDE90137CDE9034604F0F1
:10197000E5F84FF683731548059501A9CDE90137C0
:10198000CDE9034604F0DAF84CF2037310480595EC
:1019900001A9CDE90137CDE9034604F0CFF8602372
:1019A0000C48059501A9CDE90137CDE9034604F0BE
:1019B000C5F806B0BDE8F081E80400200038024018
:1019C00000140240000802400018024000100240CB
:1019D000000C02400004024030B5014689B00022EC
:1019E000362003F037FE362003F066FE0025154B47
:1019F00002951A6C144C42F010021A641B6C03F02E
:101A00001003029301A903A8029B05F00FFA05F049
:101A1000EDF90E4B236040F2E733E36040000C4BDE
:101A2000B0FBF3F00138606020462561A56005F049
:101A3000B9FF20B9204605F099FE09B030BD01205C
:101A4000FBE700BF00380240EC040020001000401B
:101A500040420F007047FEE7FEE7FEE7FEE77047F3
:101A6000014805F097BE00BFEC040020014804F0D7
:101A7000A1BE00BFB4030020014803F091BF00BF26
:101A8000200300200120704708B51CF087FC1623B6
:101A900003604FF0FF3008BD08B51CF07FFC162333
:101AA0000360FEE770B50D4614460E46731B9C425C
:101AB00001DC204670BDAFF3008006F8010BF5E7AE
:101AC00070B50D4614460E46731B9C4201DC204641
:101AD00070BD16F8010BAFF30080F5E74FF0FF3053
:101AE00070474FF400534B6000207047012070474F
:101AF000002070470A4A116808B5034609B9094928
:101B000011601068694603448B4206D91CF046FCFC
:101B10000C2303604FF0FF3008BD1360FCE700BFEB
:101B20002C0500209042012000F074BC00F0E4BCC1
:101B3000704710B5042104461CF0ADFB204610BDD3
:101B400038B50C4B0C4C18800C4B82201980636804
:101B5000984740F6110398420AD1094D23682C603A
:101B6000822098472B688220DB689847002038BD88
:101B70000120FCE730050020500000203205002045
:101B8000340500204FF4A071F020FFF7D9BF00000A
:101B9000F7B52D4D2B6804461B698220984780B20B
:101BA0002080002843D02B680DF106025B6901A953
:101BB00082209847BDF80620A2F5B47292B20A2A94
:101BC00037D90B23B2FBF3F2204B1B889A4201D981
:101BD000013B9AB2BDF8043040F6B8318B422AD8A6
:101BE000C3F571630E339BB20F21B3FBF1F31849B8
:101BF00009888B4201D94B1E9BB2164E164D306898
:101C00002F68834281B28CBF591AC91AB8B2BA423E
:101C10008CBF101A801A89B280B201440529C8BF4E
:101C200033603368C8BF2A6063802B68A38003B029
:101C3000F0BD0022CEE7C3F56D6308339BB20E2BD7
:101C4000D2D80023D9E700BF340500203205002098
:101C500030050020380500203C05002037B56846D7
:101C60000D461446FFF794FFBDF8000040B1BDF8E3
:101C700002302B60BDF80430C3F596732360012059
:101C800003B030BD704770477047012380F874106F
:101C900080F875307047002070470000034B4164A6
:101CA000003918BF01211970704700BFE73F0120BC
:101CB00000207047836B0BB10846184770474FF6FA
:101CC000FF707047406803689B691847704770470A
:101CD000704700F0B1BC08B503680446D3F8803003
:101CE0009847236820469B6F984700F021F92368A6
:101CF00020461B6F98472920FFF7E4FB00F018F9F6
:101D0000236820461B6F9847F8E710B504460AF091
:101D10005FFF23682046D3F8AC30BDE81040184779
:101D200000F07CBC00F080BC00F0A0BC00F052BC15
:101D300000F09EBC00F0A6BC00F056BC0AF0BCB996
:101D400010B57C2104461CF0A6FA204610BD90F880
:101D500077301BB1406803681B6818471846704706
:101D600010B590F8341090F874400C4B8C421A78EF
:101D700009D03AB90A4A0B491488088810800C80A7
:101D800001221A7010BD002AFCD0054A05491488AA
:101D9000088810800C800022F3E700BFE03F01209C
:101DA000DC3F0120DE3F012070B50D46194635B9F4
:101DB000094B0A4A0A4840F2D2211CF0BDFAC0E998
:101DC0000F52084B003A18BF01221A700368BDE891
:101DD0007040D3F88C301847E0F8010818F9010872
:101DE00066F90108E63F012008B5094B1B888B42C4
:101DF00003D8084B1B88934205D9074B074A08486C
:101E00009E211CF099FA074B1980074B1A8008BDD8
:101E1000DC3F0120DE3F0120ABF901080EFA01088A
:101E200066F90108E23F0120E43F0120012108B5E5
:101E30000022084606F076F8064B4FF0FF31186096
:101E400006F0C6F800220421012006F031F9024B09
:101E5000186008BD440500204005002008B5074B68
:101E6000186828B9064B074A074831211CF064FA64
:101E7000BDE808404FF0FF3106F0AAB84405002045
:101E80002CFB01083DFB01087AFB010808B5064B55
:101E9000186828B9054B064A06483A211CF04CFA46
:101EA000BDE8084006F0CEB8440500202CFB010830
:101EB000CDFB01087AFB010808B5074B186828B963
:101EC000064B074A074847211CF036FABDE8084090
:101ED000002106F07DB800BF440500202CFB01085E
:101EE0000AFC01087AFB010808B5064B186828B9F6
:101EF000054B064A064854211CF01EFABDE808406E
:101F000006F0A0B8440500202CFB01084AFC01089B
:101F10007AFB0108044B186820B1002303491A46D4
:101F200006F00CB9704700BF4005002010000020EB
:101F300013B5084C206858B100231A4601A906F0D1
:101F40003FF920684FF0FF33002201A906F038F96D
:101F500002B010BD4005002003685B6C18470020EC
:101F6000704703689B6A184740F26F307047000063
:101F700010B5074C074B2360204603F011FC064BBD
:101F80002361064B6361064B4FF080629A6010BD7F
:101F90002003002000B0024009200008A51F00080F
:101FA00000E100E008B5034A034B044836211CF069
:101FB000C3F900BF8EFC010853020208C1FC0108EE
:101FC000084B10B503600446074803F0B3FC074B09
:101FD0004FF08062C3F88820BFF34F8FBFF36F8F3D
:101FE000204610BD1CFD01082003002000E100E098
:101FF00010B50446FFF7E4FF20464FF45A611CF089
:102000004AF9204610BD0000024B1B68586803685F
:102010005B691847E83F0120044B1B6893F8762062
:102020000AB1D86C00B99868704700BFE83F01203A
:102030002DE9F7430D68202D0C4600F09E80402DC1
:1020400000F09B802A1F56425641B5F5807F00F074
:102050009680A5F500735D425D41FFF7DDFF0368E3
:102060009B6A98472368B3F5807F844600F096808A
:1020700000F28780202B00F09380402B00F09080AE
:10208000042B00F08480BCF1100F0CBF0221012151
:1020900000224A4BB4F81480D3F800E0678BDEF8D6
:1020A00000905A60BCF1100F29F440390CBF022097
:1020B0000120A7EB080749EA02029860DF60CEF82A
:1020C0000020DEF83420D96222F007020243CEF865
:1020D0003420DEF8402022F47F5222F03F023A43BF
:1020E000CEF84020228BA2EB08029A6206B98DB38B
:1020F000227FFF2A15BF02210021C3E90C121963B8
:1021000015B3BCF1100FE1684FEA026E4AD14FF0EF
:102110001F0801EA0802C1F3C42CC2EB0222B2FB81
:10212000F8F242EA0E02CCEB0C2CC1F34511BCFBD9
:10213000F8FC42EA0C42C1EB01214FF03F0CB1FB2D
:10214000FCF142EA01225A63C3E9067000211B48F0
:1021500003F0B0FC1948012103F0ACFCA38AE28A29
:1021600006B91DB3CDE900322369616813481A46E8
:1021700003F060FB03B0BDE8F083012669E70125A9
:102180006BE7B3F5007F7FF47EAF092103E01028F1
:102190000CBF022101214FF400327AE70A21FAE74D
:1021A0000021F8E74EEA01015963CDE7009261682A
:1021B0002269024803F020FBDCE700BF2003002077
:1021C000F7B50D46FFF728FF03689B6A984710286C
:1021D000EB68297F67D103F01F02C2EB02221F20A8
:1021E000B2FBF0F4C3F3C42244EA0164C2EB02225E
:1021F000C3F34513B2FBF0F244EA0244C3EB0323FA
:102200003F220221B3FBF2F344EA03242B6828485F
:102210006E8B0268082BAB8AA6EB03061368C660B8
:102220000CBF4FF400374FF4403723F440333B43A7
:10223000C0E901711360536B23F007030B43536331
:10224000136C23F47F5323F03F033343B7F5003F70
:1022500013641CD10123C0E90C340923C0E90661D1
:10226000C362002103F026FC0121114803F022FC87
:10227000B7F5003FAA8AE98A0DD12B690C48CDE950
:1022800000211A46194603F0D5FA03B0F0BD002329
:10229000C1628362E8E70091134621462A69044837
:1022A00003F0AAFAF1E743EA01640121AEE700BFB7
:1022B0002003002070B5044625460A4B0C3000264A
:1022C00060602672667245F8203B602229460AF05B
:1022D000BDFD04F55A63EE602435AB42FBD12046C8
:1022E00070BD00BF1CFD0108012070470C20704725
:1022F0000C2303FB0100083070470C2303FB010093
:10230000083070470120704741F68430704741F62D
:10231000843303FB01000830704741F6843303FB2C
:10232000010008307047012070473820704738237B
:1023300003FB010008307047382303FB010008301D
:102340007047084600F074BB10B5034B03600446A9
:1023500007F097FE204610BDD4FD010810B50446D5
:10236000FFF7F2FF204614211BF095FF204610BD19
:1023700010B5034B0360044607F083FE204610BDF2
:10238000A0FD010810B50446FFF7F2FF204641F614
:102390008C311BF080FF204610BD000010B5034BB0
:1023A0000360044607F06DFE204610BD6CFD010879
:1023B00010B50446FFF7F2FF204640211BF06BFFEB
:1023C000204610BD10B5084B0360044600F5DF50F1
:1023D000FFF7BAFF04F15400FFF7CAFF04F114003D
:1023E000FFF7DCFF204610BD08FE010808B50248D3
:1023F000FFF7E8FF08BD00BF4C05002010B50446FC
:10240000FFF7E0FF204641F6FC511BF044FF204659
:1024100010BD00002DE9F34100F094F9054600F0ED
:1024200095F900240146234628462246009410F0E0
:1024300045F9264B264A274D1A60204600F08CFCB1
:10244000254810F0A3F82B78BFF35B8FDB0737D458
:1024500028461BF022FF98B3204C214B236004F543
:10246000DF5707F1C40604F1140004F1540860605A
:10247000C4F80880E760266107F004FE194B636129
:10248000404607F0FFFD184B6365384607F0FAFD3C
:1024900004F58053154AC3F8E02B03F6F43002F03C
:1024A0006FF9224607F11401304602F05FF9304619
:1024B00000F0BEFA0E481BF05DFF28461BF0F9FE47
:1024C0000C4802B0BDE8F041FFF703BC44400120D6
:1024D0006831002048050020140000204C05002031
:1024E00008FE01086CFD0108A0FD0108D4FD0108EB
:1024F000ED230008EC3000200148FFF7ECBB00BFE3
:10250000EC30002070B5234C234E244B244D236027
:102510003046FFF7CFFE284613F0DAF9214B224868
:10252000DC60224C03600022F0204FF48071208098
:10253000C3E912121E4C1F492080C3E919121E4C18
:102540001A864FF080714FF4A07059670121C3E9DA
:102550000422C3E90622C3E90822C3E90A22C3E927
:102560000E22C3E91022C3E91422C3E916221A6617
:1025700083F86C201A67C3E9016583F8781020801E
:102580000E4C83F8341020800D4802700D4A1A60FA
:1025900070BD00BF482300204C230020D0F8010864
:1025A0006C310020EC300020E83F0120DC3F0120AE
:1025B000E23F012001000001DE3F0120E43F012055
:1025C000E03F01205CFA01080148FFF7F9BC00BFB9
:1025D0004C230020034B902283F85A2383F858237E
:1025E000704700BF00E100E0094A0A49D3680A4881
:1025F000C3F30A03013B9BB20B801169C1F30A01CB
:10260000013901801364536B43F001035363704736
:1026100000680140E6310020E4310020014BD3F88E
:10262000AC00704700680140024B0122C3F8AC10B7
:102630005A6270470068014038B5044609F091FDC0
:1026400023685D6E0CF01AFE01462046A8472368F9
:10265000054AD3F88850A2F5163100232046A84732
:10266000002384F84A3038BD005802D009F02ABD52
:10267000034B4FF080629A604FF080729A6070470F
:1026800000E100E0084B4FF08062C3F88820BFF300
:102690004F8FBFF36F8F4FF08072C3F88820BFF366
:1026A0004F8FBFF36F8F704700E100E0134B144A68
:1026B0001B6C11888B4210B5124C13D1124B198828
:1026C00004F002F9226892F86630013382F866302D
:1026D000FFF720FC20680AF07BFABDE810400020DC
:1026E000FFF7D0BA04F0F0F80020FFF7CCFA20682A
:1026F0000368BDE810401B6A184700BF006801402E
:10270000E6310020E83F0120E4310020704710B599
:10271000042104461BF0BFFD204610BD012908B569
:1027200006D0022908D059B900F062FB006808BD44
:1027300000F05EFB4068FAE700F05AFB8068F6E7BD
:102740000020F4E70048704728FE01080120704788
:1027500013B5002451B1036801948DF8034001AA18
:102760009C680DF10303A04702B010BD0846FBE7CB
:102770004089704780897047808870478379808856
:10278000184480B27047C07900F07F007047C0796C
:10279000C0097047704710B5082104461BF07BFD47
:1027A000204610BD7047704700F596730868496869
:1027B00003C370477047704741607047704700001F
:1027C000064BC0F848310023C0F84C3100F5A07327
:1027D000C0F84401C0F83C31704700BF81280008B0
:1027E0000123037270477047704710B4C268416894
:1027F0005410034601EB6200D20748BF0A599B6898
:102800005DF8044B48BFD358184743682BB1836821
:102810002BB9C06800F001007047184670470120CE
:10282000704710B50C2104461BF035FD204610BD45
:1028300010B5102104461BF02EFD204610BD10B52A
:102840004FF4AC7104461BF026FD204610BD08B5C0
:102850000CF014FDBDE808400DF0F0B810B50446CA
:10286000D0F83C0158B10368DB68984738B1D4F818
:102870003C0103689B6898470023C4F83C3110BDB5
:102880002DE9F14FD0E9545A0746A86803681B6A3E
:10289000984741F68333984205D8454B454AA321D2
:1028A00045481BF049FD686803681B6A984737284C
:1028B00003D8424B3F4AA421F2E7E86803681B6A49
:1028C00098470B2803D83E4B3A4AA521E8E7DFF8A2
:1028D000F8900CF0D3FC0CF013FDD9F8000010B107
:1028E0000368DB689847D9F8000010B103681B68DB
:1028F0009847DFF8D880D8F8000010B103685B690A
:102900009847D7F8380110B103685B689847D8F842
:10291000000010B103681B689847D7F8380110B160
:1029200003689B689847E868036800215B6A9847DA
:102930004FF0000B234B03600446C0F804B080F84E
:1029400008B0A868036859465B6A9847064602F0D3
:102950006FF96868036859465B6A984731460546CF
:1029600002F076F8C9F80040C7F83851C8F800609E
:10297000E5B12B1DCAF8AC303368C5F808A0304665
:10298000DB68F56398472B6828461B689847214603
:1029900030460EF05DF9236820461B69984723688E
:1029A0005B69204601B0BDE8F04F18472B46E1E7D0
:1029B0004CFE0108DAFE0108DCFF010823000208D2
:1029C000C6000208D8010208284001202440012046
:1029D000F8B5044617460E460CF0ACFC104B00252B
:1029E000C4E954760F4E1C60C4E952550E4B306852
:1029F00023600E4BC4E95035036801219B68C4E98C
:102A00004E559847284600F0A7F9336893F876208A
:102A10000AB1D86C00B9986814F041FD2046F8BDA1
:102A200034400120E83F01208C01020874010208B3
:102A3000064BC0F848310023C0F84C3100F5A073B4
:102A4000C0F84401C0F83C31704700BF812800083D
:102A5000006A7047406A704770478B8880690A68CF
:102A6000DB0A50F823001044704710B5C2B1137B45
:102A7000B3B1547BD27A240204F4E0641443C269F3
:102A800098B202EB840213888B4202D192F90200C1
:102A900010BD05D8013880B204320028F3D1F7E721
:102AA0000020F5E710B5282104461BF0F4FB204672
:102AB00010BD000030B589B00446BDF850500695F1
:102AC000BDF84C5005959DF8405004959DF83C503C
:102AD00003959DF8385002959DF8345001959DF866
:102AE000305000950DF04AFC064B2360119BA3610A
:102AF000129BE361159B2362169B6362204609B01B
:102B000030BD00BFFC0102087047000030B5154D14
:102B10002C78BFF35B8F14F001048DB01FD12846D1
:102B20001BF0BBFBD8B13F2307930F4B06930F4B12
:102B300005930123CDE9033302930423CDE9003348
:102B40000B490C4808941023BF22CDE90944FFF734
:102B5000B1FF09481BF00EFC28461BF0AAFB0548F4
:102B60000DB030BDE8310020F8A8030890B103088B
:102B70009C890308EC310020092B000870470000F5
:102B800030B5164D2C78BFF35B8F14F001048DB077
:102B900021D128461BF081FBE8B13F230793104B5E
:102BA0000693104B059302220123CDE903320293D1
:102BB00004210523CDE90031BF220B490B480894BD
:102BC0001823CDE90944FFF775FF09481BF0D2FB34
:102BD00028461BF06EFB05480DB030BD14320020B6
:102BE00038AA030894B1030810940308183200208F
:102BF0007D2B00087047000030B5164D2C78BFF3D0
:102C00005B8F14F001048DB021D128461BF045FBE9
:102C1000E8B13F230793104B0693104B0593022313
:102C2000CDE9033301220423CDE9013208230C4905
:102C30000093BF222823CDE909440A480894FFF7EE
:102C400039FF09481BF096FB28461BF032FB05486C
:102C50000DB030BD403200208CAD030898B10308A0
:102C6000849E030844320020F52B000800207047A2
:102C7000002070470EB403B503AB002153F8042BBA
:102C800001930DF0ADF902B05DF804EB03B07047AD
:102C90000CB407B504AB53F8042B01930DF0A0F965
:102CA00003B05DF804EB02B070470000436C10B550
:102CB000044673B3038F2BB9184B194AC021194826
:102CC0001BF03AFBC38E00EB43035B8C0BB30EF09F
:102CD00062FE238F012B03D8134B144AC521EEE764
:102CE000E28E531C9BB2092B194688BFA3F10A013F
:102CF00004EB410140F63F10498C814209D10A2B77
:102D000004EB420228BF002304EB4303508C588499
:102D100051842046BDE810400EF040BD4C02020830
:102D200055020208000302084A0302085803020879
:102D30000EF0FBBC10B586B002AC84E806001A4663
:102D40000AAB05930193099B00932146089B0BF066
:102D5000CAFD06B010BD000038B518BB124B1348B1
:102D60001B681349B3B11A689C681A4402605A6818
:102D70001A440A601C440F4B00221A8000F038F8F5
:102D8000054600F033F80C4B1C600C4B1D600C4BDF
:102D9000188007E00B4B03600B4B0B600B4B1C6860
:102DA000002CE8D138BD00BF6C320020703200200A
:102DB0007432002078320020384001204040012049
:102DC0003C400120E4B103089CB1030868B2030849
:102DD000044B1B6853F82100034B1B6803EB4000B6
:102DE000704700BF743200207032002012207047FC
:102DF000004870477C32002010B5FFF7C1FE044C3C
:102E00002060FFF7F9FE6060FFF780FEA06010BD54
:102E10007C3200200020704781807047C18070475D
:102E20000181704741817047704770477047704714
:102E3000704710B4C4880368121B84885B6D091B3B
:102E400012B25DF8044B09B218474FF6FF73838145
:102E50004FF0FF3303621368C36110607047806AEC
:102E6000704790F825201AB190F8242002B118601C
:102E7000704730B50368018185B06D460146D3F8CF
:102E8000843004462846984795E807003C3484E897
:102E9000070005B030BD30B50368418185B06D468F
:102EA0000146D3F8843004462846984795E8070041
:102EB0003C3484E8070005B030BD00220280428027
:102EC0008280C280704780F83610704770B5036802
:102ED00004461B6B154698472368294620465B6EBF
:102EE000BDE87040184700207047806C70477047FD
:102EF0007047704710B54C2104461BF0CCF92046B2
:102F000010BD10B5E02104461BF0C5F9204610BDE8
:102F100090F8252012B103685B69184770470000DC
:102F2000036870B55E6B124B1B6804468DB22BB9FB
:102F3000104B114A6C2111481BF0FEF91049828D8B
:102F40000988914203D80F4B0B4A6D21F3E713F820
:102F500012200D4B1B6853F822000368DB6A984768
:102F6000281A01B233462046BDE87040184700BF1A
:102F7000384001202A0402086C040208A704020851
:102F80003C400120EE0402084040012000224FF0A6
:102F9000FF31C0E90021826070470000074A0260EB
:102FA0000022C0E90122C0E90322C0E90522C0E9EC
:102FB00007224FF480728284704700BF981602087F
:102FC0002DE9F0411D460368BDF918701B6B0446DE
:102FD000164698472368314620465B6B984723681E
:102FE000294620469B6B9847236839462046DB6B71
:102FF000BDE8F041184700002DE9F047044688B0CD
:1030000026460025FFF7CAFF454BA56246F82C3B34
:103010002946262230461BF01BFA3046FFF7BEFF3A
:103020004FF47F034FF6FF7A236604F178073D4B98
:10303000DFF81C91E3624FF0FF3829462622C4E9ED
:103040001B85E565A4F86450A5666567C4F85490CF
:10305000A4F858A038461BF0FBF93846FFF79EFF4E
:10306000314BA367314BA36027232A462946C4F876
:10307000A050009330468B2384F89EA0FFF7A0FF5A
:10308000E36AA4F8605002AD2846D3F88430C4F84F
:103090005C803146984795E8070004F1680383E8AF
:1030A0000700234B1B6804F1A4052BB9214B224ACE
:1030B000602122481BF040F9214B1B880B2B03D8C1
:1030C000204B1D4A6121F4E71F4B0B211868FFF7C5
:1030D0007FFE1E4A03461E2128460FF00BFA0C23E2
:1030E00006A930466567ADF81C30CDF818900AF097
:1030F00021FA5E23602200933846C1230B21FFF79B
:103100005FFF31462046C4F8A08008F035FD204618
:10311000394608F031FD204608B0BDE8F08700BF11
:103120000006020870050208781502088B002700C7
:10313000384001202A0402082C050208A7040208CE
:103140003C400120EE0402084440012064050208CE
:1031500044FE0108704770477047704770477047DA
:1031600070477047704770477047704770477047A7
:103170002DE9F0411E4600F25C53994204460D468B
:1031800017460AD10B68284611469B689847236862
:103190000146DB6A32462046984704F50B639D42A0
:1031A0000AD12B6839469B68284698472368014610
:1031B0001B6B32462046984704F604439D420CD1CF
:1031C0002B6839469B682846984723680146324653
:1031D00020465B6BBDE8F0411847BDE8F081022056
:1031E000704790F82C3023B100F180031B684366D0
:1031F000704700F17C03F9E77047704770477047EC
:1032000038B50546074B45F8043BD0F8E430044692
:103210001B68E4309847636828461B689847204637
:1032200038BD00BF3408020810B5084B03600446DF
:1032300000F60440FFF7E4FF04F50B60FFF7E0FF42
:1032400004F25C50FFF7DCFF204610BD200A0208A4
:103250007047F0B4C56846686F10044606EB650019
:10326000ED07A46844BFF5592C59A446F0BC60474B
:1032700043682BB183682BB9C06800F00100704728
:10328000184670470120704730B4C2684468551032
:10329000034604EB6200D20748BF62599B6830BC0A
:1032A00048BFD358184743682BB183682BB9C0680F
:1032B00000F001007047184670470120704790F8F1
:1032C0002D3080F86A307047A0F878117047B0F858
:1032D00078017047A0F850107047B0F85000704760
:1032E00010B50446FFF78CFF20464FF4E2711AF048
:1032F000D2FF204610BD10B5602104461AF0CBFF66
:10330000204610BD10B5842104461AF0C4FF2046A3
:1033100010BD10B5102104461AF0BDFF204610BDA7
:1033200010B5102104461AF0B6FF204610BD10B5A6
:103330004FF4C87104461AF0AEFF204610BD10B518
:103340000446FFF771FF204641F6E4211AF0A3FF7F
:10335000204610BD10B504462C3007F00FFB04F1D9
:10336000C40007F00BFB04F58870BDE8104007F0BF
:1033700005BB10B50446C43007F000FB04F59960A6
:1033800007F0FCFA04F5AC6001F050FBD4F84036CD
:1033900004F5C860D3F88830984704F5E460FFF777
:1033A000D9FF04F6B40001F041FBD4F8943904F6D7
:1033B0009410D3F88830984704F67420FFF7CAFFBA
:1033C00004F6084001F032FBD4F8E83C04F6E8408B
:1033D000D3F88830BDE81040184710B50446006B9C
:1033E00050B10368DB68984730B1206B0368214611
:1033F0009B68BDE81040184710BD00F6C8529142C6
:1034000002D103689B6B184700F64C62914202D1CF
:103410000368DB6BF7E700F56D62914202D1036848
:103420001B6CF0E700F65472914202D103685B6CAA
:10343000E9E700F6D872914202D103689B6CE2E79B
:1034400000F582521C32914202D10368DB6CDAE74C
:103450007047000008B58BB2012B05D9054B064A11
:10346000064854211AF068FFE02301FB03000430F2
:1034700008BD00BF8C060208A70602083307020831
:103480000B7970B590F82C6004460D469BB98EB947
:10349000B3FA83F35B0984F82C3023682046D3F811
:1034A0008C309847236820465B69984716B12B7982
:1034B000012B03D070BD002EFCD0E9E72368204625
:1034C000D3F88830BDE8704018472DE9F041044634
:1034D00008F061FA94F87431002B53D0B4F87631C7
:1034E000B4F8785101339BB2AB42A4F8763149D39A
:1034F0005B1B9DB2B4F88021B4F87C31D4F88461B0
:10350000D21A12B2B4F87A3100212846B047B4F882
:103510007E31B4F88221D4F88871D21A0646B4F804
:103520007A3112B200212846B847B4F87E21B4F8A7
:103530007C110244314412B209B22046FFF779FCF3
:10354000B4F87831B4F87A11B4F876210B449A4281
:1035500018D3002384F87431A4F876310BF08EFE72
:1035600021460BF0B7FED4F88C0158B10368DB6834
:10357000984738B1D4F88C01036821469B68BDE8B0
:10358000F0411847BDE8F08190F84C3070B5044622
:10359000002B49D0B0F84E00B4F85030013080B262
:1035A0009842A4F84E003FD3B4F85460B4F85620C3
:1035B000A56DC01A921BB4F8523012B2002180B22D
:1035C000A84794F83620304405B2AA4283B205D009
:1035D00025BB20460AF074F884F83650B4F8503011
:1035E000B4F85210B4F84E200B449A421CD3002376
:1035F00084F84C30A4F852300BF040FE21460BF01A
:1036000069FEE06D80B10368DB68984760B1E06DEA
:10361000036821469B68BDE87040184784F836303F
:1036200020460AF04DF8D9E770BD70B5036804462E
:103630001B6B154698472368294620465B6BBDE8FF
:103640007040184770B5036804469B6B1546984751
:10365000236829462046DB6BBDE870401847000010
:1036600010B52622044600211AF0F2FE2046FFF78C
:1036700095FC044B2360FF2384F826300023A362CB
:10368000204610BD7815020810B5262204460021F8
:103690001AF0DEFE2046FFF781FC0A4B23600A4B3E
:1036A000A3624FF6FF73A3854FF47F020023C4E9A2
:1036B0000C324FF0FF32C4E910232387E363204626
:1036C00010BD00BFE814020844FE010810B504460E
:1036D000FFF7DAFF024B23600023A364204610BDEE
:1036E0007005020810B5064B044640F8043B01F093
:1036F00085F904F1E40001F081F9204610BD00BF16
:103700003408020870B50446FFF748FC4FF47F43C5
:10371000A38525460123002684F82430074BA662A2
:10372000266345F8343B2846FFF7AEFF2046C4E940
:103730001F66294608F020FA204670BD5409020889
:1037400013B504463430019009F0F4FEB4F90A20B0
:10375000B4F908100198FFF775FF02B010BD0368B7
:10376000C0E91F12D3F88C30184700002DE9F04F44
:103770002DED108B0446A1B00DF0BEF822460025B9
:10378000E54BE56342F8403B10460E92FFF768FFB9
:1037900004F16C0318460F93FFF762FF04F19803DE
:1037A000184608EE903A07F0CBFE04F5AE731846C3
:1037B0000EEE903AFFF78AFFD84BC4F85C3104F55F
:1037C000DE73184684F8A851A4F8AA51A4F8AC51A5
:1037D000C4F8B8510FEE103AFFF778FF04F5027302
:1037E00018460FEE903AFFF771FF04F5157318466F
:1037F0001093FFF735FF04F5207318461193FFF778
:103800002FFF04F52B7318461293FFF729FF04F5D9
:10381000367318461393FFF723FF04F541731846D8
:103820001493FFF71DFF04F54C7318461593FFF72B
:1038300017FF04F5577318461693FFF711FF04F5A9
:10384000627318461793FFF70BFF04F56D73184664
:103850001893FFF705FF04F5787318461993FFF7DF
:10386000FFFE04F20C4318460893FFF70DFF04F225
:10387000544318460993FFF707FF04F29C43184688
:1038800008EE103A07F01EFAA54BC4F89C3404F277
:103890005C53184604F5E46B0493A24EDFF8A8A22B
:1038A000FFF720FF584607F041FB04F67428C4F8E0
:1038B000206784F89458A4F89658C4F89858C4F827
:1038C0009C58C4F8A058C4F8A458C4F8A858C4F820
:1038D000AC5804F50B60FFF705FF404607F026FBE8
:1038E000C4F8746A84F8E85BA4F8EA5BC4F8EC5B9B
:1038F000C4F8F05BC4F8F45BC4F8F85BC4F8FC5B94
:10390000C4F8005C04F60440FFF7ECFE04F6C8536C
:1039100018460A93FFF7F6FE04F64C6318460B931D
:10392000FFF7F0FE04F56D6318460C93FFF7EAFE0F
:1039300004F6547318460D93FFF7E4FE04F6D873AB
:1039400018460593FFF7DEFE04F582531C33184634
:103950000EEE103AFFF7D6FE04F5875318460DEE2B
:10396000103A06F05FFC04F58E530433184609EE56
:10397000103A06F057FC04F595530833184609EE43
:10398000903A06F04FFC04F59C530C3318460AEEAF
:10399000103A06F047FC04F5A353103318460AEE1C
:1039A000903A06F03FFC04F5AA53143318460BEE88
:1039B000103A06F037FC04F5B153183318460BEEF5
:1039C000903A06F02FFC04F5B8531C3318460CEE61
:1039D000103A06F027FC04F5C05318460DEE903A55
:1039E00006F020FC04F5C753043318460CEE903A59
:1039F00006F018FC04F5CE53083318460693FFF77B
:103A000065FE04F5D053143318460793FFF75EFEA6
:103A100004F580530393039A434BC2F8C43A434BD3
:103A2000C2F8CC3A424BC2F8D43A4FF4A077414B9B
:103A3000C2F8DC3AC2F8C84AC2F8D05AC2F8D84A2A
:103A4000C2F8E05A4FF07F460E980097F0232A46BE
:103A50002946FFF7B5FA0F98A6660097F7232A467E
:103A60006FF00201FFF7ACFAC4F8946032266423C9
:103A70006E2218EE900A46210096FFF7A1FA18EE82
:103A8000900A294607F0D8FF18EE900A012108F0A5
:103A90002FF8294918EE900A07F010FF18EE900A47
:103AA0000A2107F00EFF18EE900A0A2107F00CFF1A
:103AB00018EE900A0A2107F081FE2A4618EE900AB5
:103AC000294607F0BCFD18EE900A294607F0CFFD05
:103AD00048221EEE900AA021FFF7A7FD174BC4F85D
:103AE0008C31D4F85C31A4F890511AAFD3F88430FB
:103AF0001EEE901A3846984797E8070004F5CC73F5
:103B000083E80700DAF8003004F5D3590BBB0C4BFF
:103B10000C4A60211AE000BF200A02089C07020834
:103B2000441302084C080208F0090208FB3300089D
:103B3000080A020871310008D90C0108FF0000FFD3
:103B40002A0402082C0502083840012005481AF012
:103B5000F3FB054B1B88042B0CD8044B044A612152
:103B6000F4E700BFA70402083C400120EE0402086D
:103B70002C050208DE4B04211868FFF729F9DD4AFD
:103B800003460A2148460EF0B5FC1EEE900AC4F822
:103B9000A49109F0AFFCD84B1E931EEE900A11239E
:103BA0001EA9ADF87C3009F0C5FCA02211461FEE1D
:103BB000100AFFF73AFDD14BC4F8EC31D4F8BC3110
:103BC000A4F8F051D3F884301FEE101A3846984705
:103BD00097E8070004F5FC7383E80700DAF8003083
:103BE00004F5D35909F11409002B90D0C4490B886E
:103BF000022BB2D9BE4A02211068FFF7E9F8BD4A8C
:103C000003460A2148460EF075FC1FEE100AC4F860
:103C1000049209F06FFCB84B1E931EA810230146B6
:103C20001FEE100AADF87C3009F084FC74221FEE00
:103C3000900AA021FFF7F9FCD4F80832A4F83C520E
:103C40004FF0FF30D3F88430C4F838021FEE901ADA
:103C50003846984797E8070004F5117383E8070092
:103C6000DAF8003004F5D45909F10809002B3FF4C3
:103C70004EAFA3490B88032B7FF66FAF9C4A0321FD
:103C80001068FFF7A5F89B4A03460A2148460EF044
:103C900031FC1FEE900AC4F850924FF00F0A09F061
:103CA00029FC954B1E931FEE900A1EA9ADF87CA02F
:103CB00009F040FC4D2310980093672253460B21D6
:103CC000FFF77EF96FF068094FF0FF324F2311982C
:103CD00084F87952C4F87C2284F87A9200936522A1
:103CE00053461A21FFF76CF984F8A6924FF0FF3281
:103CF0004FF04A09129884F8A552C4F8A822CDF8CA
:103D0000009053466A222921FFF75AF94FF0FF32FB
:103D1000C4F8D42253236FF06802139884F8D15268
:103D200084F8D2220093612253463821FFF748F9E4
:103D30004FF0FF316FF06802149884F8FD52C4F818
:103D4000001384F8FE22CDF8009053466A224721E2
:103D50004FF06409FFF734F94FF0FF316FF068025C
:103D6000159884F82953C4F82C1384F82A23534651
:103D7000CDF8009050225621FFF722F94FF0FF3185
:103D80006FF068024223169884F85553C4F858130C
:103D900084F856230093722253466521FFF710F9E9
:103DA0004FF0FF316FF068025623179884F8815363
:103DB000C4F8841384F8822300935E22534674214E
:103DC000FFF7FEF84FF0FF316FF0680243231898B9
:103DD00084F8AD53C4F8B01384F8AE230093712275
:103DE00053468321FFF7ECF84FF0FF316FF0680284
:103DF0004023199884F8D953C4F8DC1384F8DA23E3
:103E00000093742253469221FFF7DAF84FF0FF3205
:103E1000089884F80554C4F80824A921CD22FFF796
:103E200004FC384B0899C4F83C34A4F84054384694
:103E300009F0FEF897E8070004F5896383E80700B6
:103E40002D4B08981E931EA90E23ADF87C3009F067
:103E500071FB099840F20512A921FFF7E6FB2A4BF6
:103E60000999C4F88434A4F88854384609F0E0F875
:103E700097E8070004F5926383E807001E4B099852
:103E80001E931EA90D23ADF87C3009F053FB2822A8
:103E90008B2318EE100A009233211422FFF790F8BA
:103EA00018EE100A294607F0C7FD18EE100A012186
:103EB00007F01EFE18EE100A144907F0FFFC18EE7A
:103EC000100A0A2107F0FDFC18EE100A0A2107F07B
:103ED000FBFC18EE100A032107F070FC18EE100A24
:103EE000022106F0E2FD18EE100A2A4610E000BF9B
:103EF000444001206405020844FE010800FFE1FF80
:103F00003C40012008FF00FFE80C0CFF5D0C01089D
:103F1000272107F0D3FB04F5D652049918EE100AB6
:103F2000143207F0FDFD272718EE100A2A4629460D
:103F300007F0B4FB8B23CD22009758461221FFF7E0
:103F40003FF82946584607F0E7F85846012106F0A1
:103F500089FF5846DB4907F0B1FC58460A2107F0B3
:103F6000B0FC58460A2107F0AFFC4946584606F017
:103F70008AFF2946584607F0E3F82A46294658465C
:103F800007F0E7F82A462946584607F0E8F8394688
:103F90005846012207F0E9F88B2340F2051284F815
:103FA0004557009740461221FFF70AF82946404638
:103FB00007F0B2F84046012106F054FF4046C249DE
:103FC00007F07CFC40460A2107F07BFC40460A21B2
:103FD00007F07AFC4946404606F055FF2946404620
:103FE00007F0AEF82A462946404607F0B2F82A46BE
:103FF0002946404607F0B3F82A46394640460A2784
:1040000007F0B3F8B14B0A9884F8995A1EA91E9389
:10401000ADF87C70FFF794FB334600962A4629469C
:1040200004F6FC50FEF7CCFF0A98A94A4FF0FF3186
:10403000FFF795FB0A980096334652460B21FEF790
:10404000BFFF04F5D6520432A04B0B98C4F8F82DEC
:104050001E931EA909230492ADF87C30FFF770FB74
:10406000334600962A46294604F56860FEF7A8FF05
:104070000B98974A4FF0FF31FFF771FB0B980096B2
:1040800033465246B421FEF79BFF049A8F4B0C989F
:10409000C4F87C2E4FF0080A1EA91E93ADF87CA030
:1040A000FFF74EFB334600962A46294604F6047075
:1040B000FEF786FF0C98864A4FF0FF31FFF74FFB63
:1040C0000C98009633465146C722FEF779FF049AB2
:1040D0007E4B0D98C4F8002F1E931EA90723ADF840
:1040E0007C30FFF72DFB334600962A46294604F61E
:1040F0008870FEF765FF0D98754A4FF0FF31FFF7A6
:104100002EFB0D9800963346C7227421FEF758FF08
:10411000049A6E4B0598C4F8842F1E931EA906239B
:10412000ADF87C30FFF70CFB0598009633462A4625
:1041300029463430FEF744FF0598654A4FF0FF31B9
:10414000FFF70DFB0598009633465146FF22FEF718
:1041500037FFDDE903215D4B91601EEE100A1E93CF
:104160001EA90523ADF87C30FFF7EAFA1EEE100A0F
:10417000334600962A4629463430FEF721FF1EEECC
:10418000100A534A4FF0FF31FFF7E9FA33461EEEAB
:10419000100A0096FF227421FEF712FFDDE90321C9
:1041A0001DEE100AC2F88C104E220C21FFF73DFACA
:1041B00002221DEE100A3B461146CDF8009005F094
:1041C0008CFF2B464A461DEE100A0095294606F044
:1041D000A1F81DEE100A032106F07BF81DEE100A6F
:1041E0001EA9ADF8785006F0BFF91DEE100A394946
:1041F00005F050FF1DEE100A314605F086FF19EE5E
:10420000100A4E221A21FFF710FA022219EE100AA4
:104210003B461146CDF8009005F05FFF2B464A461D
:1042200019EE100A0095294606F074F819EE100AE6
:10423000032106F04EF819EE100A1EA9ADF87850C9
:1042400006F092F919EE100A224905F023FF19EE43
:10425000100A462105F059FF19EE900A4E22282136
:10426000FFF7E3F9022219EE900A3B461146CDF81A
:10427000009005F032FF2B464A4619EE900A009551
:10428000294606F047F819EE900A032106F021F8B6
:1042900019EE900A1EA9ADF8785006F065F919EEEE
:1042A000900A0C4905F0F6FE19EE900A502105F02F
:1042B0002CFF1AEE100A4E223621FFF7B6F9022221
:1042C0000AE000BFC50D0108390E010844FE0108CF
:1042D0000A0A0AFFFF0000FF1AEE100A3B461146C9
:1042E000CDF8009005F0F9FE2B464A461AEE100A6A
:1042F0000095294606F00EF81AEE100A032105F083
:10430000E8FF1AEE100A1EA9ADF8785006F02CF955
:104310001AEE100AE54905F0BDFE1AEE100A4B210F
:1043200005F0F3FE1AEE900A4E224421FFF77DF9C4
:1043300002221AEE900A3B461146CDF8009005F095
:10434000CCFE2B464A461AEE900A0095294605F007
:10435000E1FF1AEE900A032105F0BBFF1AEE900A66
:104360001EA9ADF8785006F0FFF81AEE900ACF4972
:1043700005F090FE1AEE900A4B2105F0C6FE1BEEEA
:10438000100A4E225221FFF750F902221BEE100AAA
:104390003B461146CDF8009005F09FFE2B464A465D
:1043A0001BEE100A0095294605F0B4FF1BEE100A1B
:1043B000032105F08EFF1BEE100A1EA9ADF8785000
:1043C00006F0D2F81BEE100AB84905F063FE1BEEAA
:1043D000100A462105F099FE1BEE900A4E2260213C
:1043E000FFF723F902221BEE900A3B461146CDF857
:1043F000009005F072FE2B464A461BEE900A00958F
:10440000294605F087FF1BEE900A032105F061FFA6
:104410001BEE900A1EA9ADF8785006F0A5F81BEE29
:10442000900AA24905F036FE1BEE900A3C2105F0E9
:104430006CFE1CEE100A4E226E21FFF7F6F80222E7
:104440001CEE100A3B461146CDF8009005F045FEE3
:104450002B464A461CEE100A0095294605F05AFFE5
:104460001CEE100A032105F034FF1CEE100A1EA9F1
:10447000ADF8785006F078F81CEE100A8B4905F07C
:1044800009FE1CEE100A412105F03FFE1DEE900AC8
:104490004E227C21FFF7C9F802221DEE900A3B460E
:1044A0001146CDF8009005F018FE2B464A461DEE49
:1044B000900A0095294605F02DFF1DEE900A032174
:1044C00005F007FF1DEE900A1EA9ADF8785006F022
:1044D0004BF81DEE900A754905F0DCFD1DEE900AC3
:1044E000462105F012FE1CEE900A4E228A21FFF7AB
:1044F0009CF802221CEE900A3B461146CDF8009033
:1045000005F0EBFD2B464A461CEE900A0095294625
:1045100005F000FF1CEE900A032105F0DAFE1CEE08
:10452000900A1EA9ADF8785006F01EF81CEE900A0D
:104530005E4905F0AFFD20271CEE900A492105F0E9
:10454000E4FD069800974923D1223321FEF738FD78
:1045500004F5805604F5D4531C334FF0FF32C6F8EF
:10456000103A534B0698C6F8F829A6F8FC59C6F835
:10457000045AC6F8082AC6F80C5AA6F89C5A1E9384
:104580001EA90123ADF87C3008F0D4FF07980097EE
:1045900049234FF485723321FEF712FD04F5D553FC
:1045A0004FF0FF321033C6F8442AC6F8542A079851
:1045B000A6F8485AC6F8505AC6F8585AA6F8B05A3B
:1045C000C6F85C3AADF87C50394B1E93251D1EA9E8
:1045D00008F0B0FF0E99284607F0CEFA0F9928464A
:1045E00007F0CAFA18EE901A284607F0C5FA1EEE30
:1045F000901A284607F0C0FA1FEE101A284607F056
:10460000BBFA1FEE901A284607F0B6FA1099284612
:1046100007F0B2FA1199284607F0AEFA1299284627
:1046200007F0AAFA1399284607F0A6FA1499284623
:1046300007F0A2FA1599284607F09EFA169928461F
:1046400007F09AFA1799284607F096FA189928461B
:1046500007F092FA1999284607F08EFA0899284629
:1046600007F08AFA0999284607F086FA18EE101A18
:10467000284607F081FA5946284607F07DFA414658
:10468000284607F079FA0A99284607F075FA0B9937
:10469000284607F071FA0C99284607F06DFA0D9933
:1046A000284607F069FA059904E000BFFF0000FF03
:1046B00044FE0108284607F05FFA1EEE101A28464D
:1046C00007F05AFA1DEE101A284607F055FA19EEAF
:1046D000101A284607F050FA19EE901A284607F0EB
:1046E0004BFA1AEE101A284607F046FA1AEE901AFC
:1046F000284607F041FA1BEE101A284607F03CFA4C
:104700001BEE901A284607F037FA1CEE101A2846BE
:1047100007F032FA1DEE901A284607F02DFA1CEE2B
:10472000901A284607F028FA0699284607F024FA36
:104730002846079907F020FA204621B0BDEC108BDF
:10474000BDE8F08F704710B54FF4AC71044619F016
:10475000A2FD204610BD10B50446D0F8540100F06B
:1047600013F82046BDE810400AF036BC10B50446E8
:10477000FEF72EF9014B2360204610BD780A02088F
:104780000022C0F8AC207047FCF780BA40F8212026
:1047900070470A3140F821207047000000000000F7
:1047A00001292DE9F74F04460D4600F1500658D077
:1047B000022900F0928000293CD1DFF8D091DFF887
:1047C000D0B100F17803B04601934F464FF0000A94
:1047D00059F8040BFBF7C8FF6AA3D3E90023FBF7E2
:1047E00057FD5B465246FBF781FEFCF737F807EEB4
:1047F000900AFCEEE77A019BE8EC017A4345E7D1A9
:10480000BB6A5D4A6FF47A7803EB0801914298BF66
:10481000A367FB6A6FF47A7C03EB0C01914298BFAB
:10482000E3673B6B544A6FF47A77D919914298BF8A
:10483000C4F8803029B204EB8505A36FAA6A9A42B6
:1048400003D354F8210083427FD24C4D28780028AE
:104850007BD0FCF711FA00232B70304603B0BDE883
:10486000F08FDFF830910FF2F80BDBE900AB00F1CD
:104870007803B04601934F4659F8040BFBF774FFD9
:1048800039A3D3E90023FBF703FD5B465246FBF750
:104890002DFEFBF7E3FF07EE900AFCEEE77A019BA3
:1048A000E8EC017A4345E7D1BB6A6FF47A701918D6
:1048B00043F2AE62914298BFA367FB6A6FF47A71CC
:1048C000591843F2AE62914298BFE3673B6B6FF4B5
:1048D0007A72991843F2AE62A8E7DFF8BC900FF243
:1048E000900BDBE900AB00F17803B04601934F4633
:1048F00059F8040BFBF738FF214B0022FBF7C8FCEB
:104900005B465246FBF7F2FDFBF7A8FF07EE900A65
:10491000FCEEE77A019BE8EC017A9845E8D1BB6AA6
:1049200040F27652A3F16501914298BFA367FB6AFA
:1049300040F27652A3F16501914298BFE3673B6B69
:1049400040F27652A3F1650170E754F821108B42D2
:1049500083D99A4282BF094B01221A707DE700BFBA
:1049600048E17A14AEAD8B40D734EF384547C23FAB
:104970000000000000E87C4006460200883200206B
:104980000000F43F2C0FD253E410913FF4010020BB
:1049900000209640280200205C02002038B550F824
:1049A000213004460D462BB9FFF7FAFED4F88030CB
:1049B00044F8253054F8250038BD38B500EB8104A3
:1049C0000546A36A1BB9FFF7EBFEEB6FA362A06A73
:1049D00038BD000010B5034B03600446FEF787FAAC
:1049E000204610BDC40A020810B50446FFF7F2FFC6
:1049F0002046E02119F04FFC204610BD10B50446BA
:104A0000FEF7FAFA014B2360204610BDC40A0208E3
:104A100010B504461E22084604F1A4010DF077FDEE
:104A200004F12C00BDE810400BF0FBBBFEF760BAB0
:104A3000704704387047704710B53821044619F0A4
:104A40002AFC204610BDA0F10400F5E770470000E5
:104A500010B500228260044A416302F10804243246
:104A60000460426010BD00BF500B02088068FFF771
:104A700095BF8068FFF7A1BF8068FFF787BE806899
:104A8000FFF787BE8068FFF78BBE704710B50446FE
:104A900004F58054FEF76DFCFF2384F80C3B10BD39
:104AA00010B500F29C44204606F020F90138C1B24E
:104AB0000022204606F0F2FD2046BDE810400BF033
:104AC000B0BB10B500F29C44204606F00FF901304F
:104AD000C1B20022204606F0E1FD2046BDE81040AC
:104AE0000BF09FBB38B500F58055044695F80C1BBC
:104AF000C06BFFF7BBFF421E95F80C1BE06BC5F8BF
:104B0000102BBDE83840FFF7B7BF38B500F580552A
:104B1000044695F80C1BC06BFFF7A8FF421C95F8E4
:104B20000C1BE06BC5F8102BBDE83840FFF7A4BFA5
:104B300038B500F58055044695F80C1BC06BFFF79F
:104B400098FF421E95F80C1BE06BC5F8142BBDE8CE
:104B50003840FFF794BF38B500F58055044695F806
:104B60000C1BC06BFFF785FF421C95F80C1BE06B1C
:104B7000C5F8142BBDE83840FFF781BF10B5013AE6
:104B800088B00C46062A05D8DFE802F00E10121491
:104B900016181A000B4968461AF0A4F86946204610
:104BA000FFF736FF08B010BD0749F4E70749F2E701
:104BB0000749F0E70749EEE70749ECE70749EAE765
:104BC0000749E8E7800B0208840B0208880B0208FB
:104BD0008C0B0208900B0208940B0208980B020839
:104BE0009D0B020810B588B00C46684604491AF0BF
:104BF00059F869462046FFF70BFF08B010BD00BF0B
:104C0000A10B020810B5034B03600446FEF70CFB32
:104C1000204610BDAC0B020810B50446FFF7F2FFAA
:104C2000204641F6843119F036FB204610BD0000C5
:104C300010B50446FEF79AFD014B2360204610BDD7
:104C4000AC0B02082DE9F04F2DED048B00F58054DC
:104C500000F587538BB00546D4F81C1B184609EEA7
:104C6000103A05F052FAD4F8202BD4F81C3B05F585
:104C70008E5B9A420BF1040B2CBF8C494FF0FF2145
:104C8000584605F007FAD4F8201B584605F03DFABF
:104C9000D4F8242BD4F8203B05F5955A9A420AF112
:104CA000080A2CBF81494FF0FF21504605F0F2F968
:104CB000D4F8241B504605F028FAD4F8282BD4F851
:104CC000243B05F59C599A4209F10C092CBF774900
:104CD0004FF0FF21484605F0DDF9D4F8281B48467F
:104CE00005F013FAD4F82C2BD4F8283B05F5A3587B
:104CF0009A4208F110082CBF6C494FF0FF21404642
:104D000005F0C8F9D4F82C1B404605F0FEF9D4F89C
:104D1000302BD4F82C3B05F5AA579A4207F114071B
:104D20002CBF62494FF0FF21384605F0B3F9D4F8A3
:104D3000301B384605F0E9F9D4F8342BD4F8303B71
:104D400005F5B1569A4206F118062CBF57494FF0A7
:104D5000FF21304605F09EF9D4F8341B304605F0AB
:104D6000D4F905F5B8531C3308EE103AD4F8382BB3
:104D7000D4F8343B9A422CBF4C494FF0FF2118EE37
:104D8000100A05F087F9D4F8381B18EE100A05F060
:104D9000BCF905F5C05308EE903AD4F83C2BD4F892
:104DA000383B9A422CBF41494FF0FF2118EE900A40
:104DB00005F070F9D4F83C1B18EE900A05F0A5F93F
:104DC000D4F8401BD4F83C2B05F5C753914203F1AE
:104DD000040328BF3549019338BF4FF0FF2118461F
:104DE00005F058F9019BD4F8401B0193184605F0D3
:104DF0008CF9D4F8482B2E4902A819F053FF05F579
:104E0000D3510A2202A80DF082FBD4F84C2B28497A
:104E100002A819F047FF05F5D3510A22143102A860
:104E20000DF075FBD4F8442B214902A819F03AFF84
:104E300005F5D4510A22083102A80DF068FB05F5EA
:104E4000AE700BF0EEF905F5DE700BF0EAF905F542
:104E500002700BF0E6F905F515700BF0E2F919EEAA
:104E6000100A0BF0DEF958460BF0DBF950460BF058
:104E7000D8F948460BF0D5F940460BF0D2F9384640
:104E80000BF0CFF930460BF0CCF918EE100A0BF00E
:104E9000C8F918EE900A0BF0C4F9019B18460BF004
:104EA000C0F90BB0BDEC048BBDE8F08FFF0000FF34
:104EB000A10B02082DE9F04F00F58054054600F2E1
:104EC0009C4A94F80C1B85B0504606F001FC94F8FF
:104ED0000C1BE86BFFF7D6FD05F5D8531C3300F12A
:104EE000340250F8041B43F8041B9042F9D194F8A3
:104EF0000C1BE86BFFF7BAFD05F5D459024654497F
:104F0000C4F8100B09F11C09684619F0CBFE49469C
:104F10000A2268460DF0FBFAD4F8102BD4F8443B73
:104F200005F5CE58934234BF4FF0FF234FF0FF33C7
:104F300008F10808C4F8F83940460BF072F994F803
:104F40000C1BE86BFFF795FD05F5D5570246404968
:104F5000C4F8140B1037684619F0A4FE39460A222B
:104F600068460DF0D4FAD4F8142BD4F8443B05F578
:104F7000D05693428CBF4FF0FF234FF0FF331436CF
:104F8000C4F8443A30460BF04CF9504694F80CBB48
:104F900005F0ACFE83453DD0504605F0A7FEC1B2FA
:104FA00084F80C1BE86BFFF761FDC4F8100B18B90F
:104FB000D4F84C3BC4F8103BD4F8102B2449684675
:104FC00019F070FE0A22494668460DF0A0FA4046E4
:104FD0000BF027F994F80C1BE86BFFF74AFDC4F8B7
:104FE000140B18B9D4F8483BC4F8143BD4F8142B6C
:104FF0001749684619F056FE0A22394668460DF0F0
:1050000086FA30460BF00DF92846FFF71BFE05B077
:10501000BDE8F08F05F674263046D4F8147B05F011
:1050200065FE874204D0304605F060FEC4F8140BDC
:1050300005F5E4663046D4F8107B05F057FE87424C
:10504000E2D0304605F052FEC4F8100BDCE700BF9A
:10505000A10B0208F02070474FF4A0707047292080
:10506000FCF730BA2820FCF72DBA08B5FCF7FEF99A
:10507000CA20FCF727FAC320FCF708FA0820FCF73F
:1050800005FA5020FCF702FACF20FCF71BFA0020AB
:10509000FCF7FCF9C120FCF7F9F93020FCF7F6F930
:1050A000ED20FCF70FFA6420FCF7F0F90320FCF781
:1050B000EDF91220FCF7EAF98120FCF7E7F9E82086
:1050C000FCF700FA8520FCF7E1F90020FCF7DEF997
:1050D0007820FCF7DBF9CB20FCF7F4F93920FCF75A
:1050E000D5F92C20FCF7D2F90020FCF7CFF93420B9
:1050F000FCF7CCF90220FCF7C9F9F720FCF7E2F93C
:105100002020FCF7C3F9EA20FCF7DCF90020FCF7CB
:10511000BDF90020FCF7BAF9B120FCF7D3F9002063
:10512000FCF7B4F91B20FCF7B1F9B620FCF7CAF97B
:105130000A20FCF7ABF9A220FCF7A8F9C020FCF785
:10514000C1F91020FCF7A2F9C120FCF7BBF910202F
:10515000FCF79CF9C520FCF7B5F94520FCF796F95A
:105160001520FCF793F9C720FCF7ACF99020FCF769
:105170008DF93620FCF7A6F9C820FCF787F9F22054
:10518000FCF7A0F90020FCF781F9B020FCF79AF9B0
:10519000C220FCF77BF9B620FCF794F90A20FCF753
:1051A00075F9A720FCF772F92720FCF76FF90420A6
:1051B000FCF76CF92A20FCF785F90020FCF766F96A
:1051C0000020FCF763F90020FCF760F9EF20FCF702
:1051D0005DF92B20FCF776F90020FCF757F9002049
:1051E000FCF754F90120FCF751F93F20FCF74EF988
:1051F000F620FCF767F90120FCF748F90020FCF7DE
:1052000045F90620FCF742F92C20FCF75BF9C82091
:10521000FCF7A6F92620FCF755F90120FCF736F932
:10522000E020FCF74FF90F20FCF730F92920FCF7BC
:105230002DF92420FCF72AF90C20FCF727F90E2081
:10524000FCF724F90920FCF721F94E20FCF71EF9A0
:105250007820FCF71BF93C20FCF718F90920FCF733
:1052600015F91320FCF712F90520FCF70FF91720A8
:10527000FCF70CF91120FCF709F90020FCF706F9FE
:10528000E120FCF71FF90020FCF700F91620FCF7DD
:10529000FDF81B20FCF7FAF80420FCF7F7F81120C2
:1052A000FCF7F4F80720FCF7F1F83120FCF7EEF8F2
:1052B0003320FCF7EBF84220FCF7E8F80520FCF778
:1052C000E5F80C20FCF7E2F80A20FCF7DFF82820CC
:1052D000FCF7DCF82F20FCF7D9F80F20FCF7D6F804
:1052E0001120FCF7EFF8C820FCF73AF92920FCF769
:1052F000E9F8BDE808402C20FCF7E4B808B5FCF755
:10530000B5F80321D320FCF7F9F880B208BD10B539
:10531000C4B2022203212046FCF75EF80A20FCF703
:10532000A3F8204600220321FCF756F8BDE8104000
:105330000220FCF799B838B50446E4B2FCF74AF805
:1053400000212046FCF760F8012105462046FCF7C5
:105350005BF840EA052080B238BD10B5C4B24021E8
:105360002046FCF751F8030607D54C212046FCF7F0
:105370004BF8003818BF012010BD01224B212046F8
:10538000FCF72AF8204600224B21FCF725F80020E4
:10539000F2E773B50423C4B20E461546D7210DEBD0
:1053A00003022046FCF74AF8019B1BBA1A0DC3F30F
:1053B0000B23328020462B8001224B21FCF70CF876
:1053C00000224B212046FCF707F802B070BD000018
:1053D00010B50A4B1A78904204460DD0597888428D
:1053E0000AD00AB141B901229C54FBF7F3FF2046D1
:1053F000BDE81040FFF78BBF10BD00BF8932002011
:1054000010B5C4B209212046FBF7FEFF40F00100B1
:10541000C2B209212046BDE81040FBF7DDBF10B540
:10542000C4B209212046FBF7EFFF092100F0FE027C
:105430002046BDE81040FBF7CFBF38B5C4B20D46DB
:1054400020460A21FBF7E0FF2843C2B20A2120468A
:10545000BDE83840FBF7C0BF07B50190FBF7BBFFC5
:1054600001981F21FFF7E9FF019803B05DF804EBF5
:10547000FFF7C6BF38B5C4B20D4620460A21FBF778
:10548000C3FF20EA0500C2B20A212046BDE8384029
:10549000FBF7A2BF10B50446FFF7C1FF20461F214E
:1054A000BDE81040FFF7E6BF10B5C0B20C460B21B7
:1054B000FBF7AAFF204010BD1F21FFF7F5BF0A46EA
:1054C000C0B20B21FBF788BF1F21FFF7F8BF38B52B
:1054D000C4B20D4620461721FBF796FF20EA0500CF
:1054E000C2B217212046BDE83840FBF775BF70B542
:1054F000C4B2064604212046FBF786FF042100F0D3
:10550000FB0205462046FBF767FF3046F021FFF718
:10551000DEFF05F0F80220460421FBF75DFF49227B
:1055200020212046FBF758FF0220FBF79DFF204675
:1055300001222121FBF750FF20469A224121FBF74F
:105540004BFF204601224A21FBF746FF204601225D
:105550004B21FBF741FF204600224B21FBF73CFF8C
:10556000204601225621FBF737FF20460122582111
:10557000FBF732FF204601224021FBF72DFF20469A
:10558000FF220B21FBF728FFBDE870400220FBF74C
:105590006BBF0000054BD3F8882042F47002C3F8BB
:1055A00088204FF000629A60704700BF00ED00E075
:1055B00008B50B4B1A6842F400721A601A6842F47C
:1055C00080621A601A6842F480721A60032000F048
:1055D0002FF80020FCF700FAFBF7CEFF002008BDF3
:1055E000003C0240034A044B11681B780B441360D3
:1055F000704700BF8C3200207C000020014B1868EF
:10560000704700BF8C32002038B50446FFF7F6FF24
:10561000631C1CBF054B1B78054618BFE418FFF739
:10562000EDFF431BA342FAD338BD00BF7C0000202E
:105630000749CA6822F4E0620302120403F4E0633B
:10564000120C134343F0BF6343F40033CB60704745
:1056500000ED00E0164B30B5DC68C4F30224C4F161
:105660000705231D042D28BF0425062B4FF0FF330B
:105670008CBF033C002403FA05F521EA0501A34091
:1056800022EA0302A140002841EA0203ACBF00F174
:105690006040084A4FEA0313B8BF00F00F00DBB2C6
:1056A000AABF00F56140135480F8003330BD00BF3D
:1056B00000ED00E014ED00E0002808DB42090123C2
:1056C00000F01F0003FA00F0014B43F8220070477E
:1056D00000E100E000280DDB4309012200F01F007B
:1056E00002FA00F02033044A42F82300BFF34F8F40
:1056F000BFF36F8F704700BF00E100E010B50446B4
:1057000050B1437903F0FF0213B90271FBF754FF64
:1057100001236371002010BD0120FCE770B504680F
:10572000049D666C45EA034306F0404633436364D8
:105730004368E263B3F5403F30D186681EB1012E65
:1057400003D121F07F41A16370BD022E01F47F03DC
:1057500001F47F45C8B207D1DB0CA90ADB0243EA9A
:10576000411343EAD001EEE7032E01F07F420AD154
:10577000D90CED0A890241EA451141EAD001D30F63
:1057800041EAC331DFE7190D2D0B090241EA05118A
:1057900041EA1011130F41EA0331D4E7E160D3E786
:1057A00010B5044630B390F8393003F0FF021BB94E
:1057B00080F83820FBF718FF22686168022384F81C
:1057C0003930136823F440330B431360536BA168E3
:1057D00023F007030B435363136CE16823F47F53F7
:1057E00023F03F030B43136400200123E06384F89C
:1057F000393010BD0120FCE773B590F83850012D09
:1058000004464FF0020513D080F839500126069D5A
:1058100080F838600095FFF781FF23681A6842F42A
:105820000C521A601A6832431A60002002B070BD30
:105830002846FBE773B516461A4690F83830012B18
:1058400004464FF0020517D0012380F83830036872
:1058500080F839505E61079B0093069BFFF75EFF5F
:1058600023681A6842F40C521A601A6842F0010266
:105870001A60002002B070BD2846FBE7026838B508
:10588000136823F0050343F0040313600446FFF795
:10589000B5FE05462268136813F0010309D11168AB
:1058A00021F40C511160012284F8392084F8383039
:1058B0000FE0FFF7A3FE401BB0F57A7FEAD9E36B58
:1058C00043F02003E3630022032384F8393084F893
:1058D0003820184638BD70B505682A6842F00402C1
:1058E0002A600129044614BF24351C35FFF786FEC3
:1058F00006462B6813F020030AD121680A6822F4B7
:1059000064520A60012284F8392084F838300FE0AC
:10591000FFF774FE801BB0F57A7FEAD9E36B43F0A2
:105920002003E3630022032384F8393084F838200D
:10593000184670BD38B5054608B9012038BD164B6C
:105940001B6B190213D42B6800243F221C602846CD
:105950009A601C619C61DC615C625C63FBF766FEC3
:10596000EC6385F8384085F839402046E6E703685F
:10597000196811F0010104D0FFF780FF0028E2D080
:10598000DBE75A6A920602D5FFF7A5FFF6E7DB6967
:105990009B06D8D50121F7E70038024070477047D1
:1059A000036870B55E681D68F207044614D5E90502
:1059B00012D51A6822F480721A60C26B42F001029A
:1059C000C26301229A60042380F83930002380F8F2
:1059D0003830436903B19847B20616D5AB0414D5E5
:1059E00023681A6822F400521A6020229A60E36B3E
:1059F00043F00203E363042384F83930002384F87E
:105A0000383063690BB120469847300716D5290511
:105A100014D523681A6822F400621A6008229A607A
:105A2000E36B43F00403E363042384F83930002379
:105A300084F8383063690BB12046984772070BD55C
:105A40006B0509D523681A6822F480621A60042263
:105A50009A602046FFF7A2FFB00714D5A90512D51A
:105A600023681A6822F400721A6002229A60E36BBB
:105A7000E363012384F83930002384F83830236944
:105A80000BB120469847F20613D5EB0411D52368D5
:105A90001A6822F480521A6010229A60E36BE36362
:105AA000012384F83930002384F838302046FFF78A
:105AB00076FF70BDF0B590F83830012B4FF002033F
:105AC0002BD0012280F8393080F8382000EB011308
:105AD000D3E907425D6A184F44EA0242093C012CAF
